:020000040800F2
:10000000D016002055020008256400089D53000802
:10001000015D000815090008F17B000800000000E0
:10002000000000000000000000000000116B00084C
:10003000CD11000800000000B9670008456D0008F8
:100040006F0200086F0200086F0200086F020008CC
:100050006F0200086F0200086F0200086F020008BC
:100060006F0200086F0200086F0200086F020008AC
:10007000F50C00086F0200086F0200086F0200080C
:100080006F0200086F0200086F0200086F0200088C
:1000900029090008390900086F0200086F020008EA
:1000A0006F0200086F0200086F0200086F0200086C
:1000B0006F0200082D6E00086F0200086F02000832
:1000C0006F0200086F0200086F020008E96800086C
:1000D0006F0200086F0200086F0200086F0200083C
:1000E0006F0200086F0200086F0200086F0200082C
:1000F0006F0200086F0200086F0200086F0200081C
:100100006F0200086F0200086F0200086F0200080B
:100110006F0200086F0200086F0200086F020008FB
:100120006F020008050D0008150D0008250D0008D8
:100130006F0200086F0200086F0200086F020008DB
:10014000D9090008E90900086F0200086F020008D9
:100150006F020008350D00086F020008E17B0008FF
:100160006F0200086F0200086F0200086F020008AB
:100170006F0200086F0200086F0200080000000014
:100180006F0200086F02000800F002F800F052F859
:1001900014A696E8000CB244B344DA4501D100F04D
:1001A00049F8BAE80F000FA696E83000A5EB040561
:1001B00004EB0607AAEB0704A7F101074FEA1515A0
:1001C0004FEA3414A4F10104AC4201D300F032F838
:1001D00013F0010F18BFFB1A43F0010300F001F800
:1001E000DBE718471C9200003C920000103A24BF45
:1001F00078C878C1FAD8520724BF30C830C144BF8C
:1002000004680C6070470000704700000023002461
:1002100000250026103A28BF78C1FBD8520728BF16
:1002200030C148BF0B6070471FB508F0C4FC1FBD4C
:1002300010B510BD00F0E4F81146FFF7F5FF07F028
:10024000A9FF00F002F903B4FFF7F2FF03BC00F0CE
:1002500005F900000948804709480047FEE7FEE726
:10026000FEE7FEE7FEE7FEE7FEE7FEE7FEE7FEE766
:1002700004480549054A064B70470000096E00080E
:1002800089010008D0100020D0160020D0120020D4
:10029000D012002053EA020C00F069802DE9F04BE7
:1002A0004FF00006002B1FBFB3FA83F503FA05F4E5
:1002B00024FA05F65E4012BF1643B2FA82F502FA3E
:1002C00005F4C5F120051EBF22FA05FC44EA0C0422
:1002D000203556EA044C4FEA144418BF641C4FF012
:1002E00000084FF00009904271EB030C39D300294C
:1002F00019BFB1FA81F701FA07F6B0FA80F700FAF0
:1003000007F6C7F120071EBF20FA07FC46EA0C06D5
:100310002037B6FBF4FCA7EB0507103F07F01F0BD7
:10032000CBF120062CFA06F60CFA0BFB44BFB346C1
:100330000026202FA4BF5E464FF0000B5BEA060CA0
:1003400008BF4FF0010B19EB0B0948EB0608ABFB9C
:10035000027C06FB02CC0BFB03CCC01B71EB0C0137
:10036000C1E70B46024641464846BDE8F08B13B54F
:10037000084318BF4FF0FF300146AFF30080BDE8DF
:100380001C4070474FF0000200B513469446964655
:10039000203922BFA0E80C50A0E80C50B1F1200198
:1003A000BFF4F7AF090728BFA0E80C5048BF0CC046
:1003B0005DF804EB890028BF40F8042B08BF7047A4
:1003C00048BF20F8022B11F0804F18BF00F8012B16
:1003D000704770477047704710B500F009F8006823
:1003E00010BD10B5044600F003F8046010BD000015
:1003F000004870474800002000487047480000202F
:100400007546FFF7F9FFAE4605006946534620F0F2
:100410000700854618B020B5FFF72AFFBDE8204049
:100420004FF000064FF000074FF000084FF0000BB0
:10043000AC46ACE8C009ACE8C009ACE8C009ACE81F
:10044000C00921F007018D46704710B50446AFF38F
:1004500000802046BDE81040FFF7F5BE0149182096
:10046000ABBEFEE7260002007047000080B500200A
:10047000C4F202001021012202F018FB80BD00002E
:1004800080B50020C4F202001021002202F00EFB11
:1004900080BD00007047000080B540F20040C4F20B
:1004A00002000122114602F001FB80BD80B540F23E
:1004B0000040C4F202000121002202F0F7FA80BDE0
:1004C00080B582B000208DF80700FFF7E3FF00F051
:1004D00015F807F0A3FC01469DF8070008438DF8C6
:1004E000070007F063FD01469DF8070008438DF8FB
:1004F00007009DF8070002B080BD000070470000B3
:1005000080B582B0ADF80600FFE7BDF80600411ED9
:10051000ADF8061028B1FFE74FF47A7000F004F848
:10052000F3E702B080BD000086B0ADF816000020F1
:10053000049003900290019000904EF21400CEF2CD
:10054000000000680090BDF81600A8214843049000
:100550004EF21800CEF2000000680390FFE74EF262
:100560001800CEF2000000680290029803998842B9
:100570001ED0FFE702980399884207D2FFE703984D
:100580000299411A01980844019008E000980299E4
:10059000401A03990144019808440190FFE702982A
:1005A000039001980499884201D3FFE701E0FFE737
:1005B000D5E706B07047000080B586B005900020F2
:1005C000019004900390FFF771FF019803A908229E
:1005D00000F04EF8FFF760FF9DF80C000F2844D1A3
:1005E000FFE79DF80E009DF80F1040EA0120ADF8DE
:1005F0000A00BDF90A0000EE100AB8EEC00A40F287
:100600000000C2F2000090ED001A20EE010A0599E8
:1006100081ED030A9DF810109DF8112041EA022196
:10062000ADF80A10BDF90A1000EE101AB8EEC00AB3
:1006300090ED001A20EE010A059981ED040A9DF85B
:1006400012109DF8132041EA0221ADF80A10BDF9FD
:100650000A1000EE101AB8EEC00A90ED001A20EE53
:10066000010A059880ED050AFFE706B080BD00008D
:1006700080B584B08DF80F0002918DF807209DF8A9
:100680000F0040F0800000F027F8FFE79DF807001A
:1006900070B1FFE7552000F01FF80299087002982A
:1006A000013002909DF8070001388DF80700EDE752
:1006B00004B080BD80B582B08DF8070000919DF830
:1006C000070040F0800000F007F8552000F004F823
:1006D0000099087002B080BD80B582B08DF8070027
:1006E00069464FF47A70086040F69870C2F20000D4
:1006F0000DF107010DF10602012303F04BFA9DF8FD
:10070000060002B080BD000080B582B08DF8070001
:100710008DF806109DF80700FFF7DEFF9DF8060034
:10072000FFF7DAFF02B080BD80B584B08DED030A1B
:100730009DED030A40F27410C2F20000009006F032
:1007400031F8009890ED2B0A06F022F8009805F099
:100750004FFF009890ED0A0A3C30019006F022F815
:100760000099019891ED2C0A06F012F8019805F015
:100770003FFF019805F0D4FF8DED020A9DED021AAE
:100780009FED052AB0EE420AF0EE420AF0EE421A60
:1007900000F004F804B080BD0000000080B586B011
:1007A0008DED050ACDED040A8DED031ACDED021A8B
:1007B0008DED012A9DED050A40F27410C2F2000091
:1007C000009006F0A7F900989DED040A06F0ACF938
:1007D00000989DED030A06F0B1F900989DED020A1C
:1007E00006F0C0F900989DED010A06F0B1F90098F5
:1007F00005F054FD06B080BD80B584B040F27410A1
:10080000C2F200000390F0EE081A9FED1A2A8DED57
:10081000012AF1EE042ACDED022AB0EE620AF0EED2
:10082000420AB0EE421A05F083FF9DED012ADDED8C
:10083000022A03983C30B0EE620AF0EE420AB0EEB3
:10084000421AF0EE421A05F073FF0398694600223F
:100850000A6040F66851C2F200010123B2EE090AB3
:10086000DFED050AB3EE021ADFED041A05F070FDA4
:1008700004B080BD000000000000344200007A4453
:1008800080B582B040F64410C2F2000090F8B9037F
:10089000012820D1FFE740F64010C2F2000001908D
:1008A00090ED000AFFF740FF0198006808F012F988
:1008B00041EC100B9FED141B53EC112B51EC100B62
:1008C00007F000FD41EC100B51EC100B07F0C8FCD9
:1008D0000199086013E040F64411C2F200010020C3
:1008E00081F8B9039FED0A2AB0EE420AF0EE420AFF
:1008F000B0EE421AF0EE421AFFF750FFFFE702B0E7
:1009000080BD00BF00BF00BF7B14AE47E17AEC3F63
:1009100000000000FFE7FEE780B582B0019001987B
:1009200005F0B0FC02B080BD80B540F66850C2F260
:10093000000000F0DDFE80BD80B540F66850C2F2D8
:10094000000000F0D5FE80BD80B582B00190019816
:10095000006840F20121884208D1FFE7019940F682
:100960004410C2F2000005F0AFFA33E001980068CD
:1009700040F20221884209D1FFE7019940F6441074
:10098000C2F20000E43005F09FFA22E0019800680E
:1009900040F2032188420AD1FFE7019940F6441052
:1009A000C2F2000000F5E47005F08EFA10E0019844
:1009B0000068B0F5017F0AD1FFE7019940F64410C5
:1009C000C2F2000000F52B7005F07EFAFFE7FFE7AA
:1009D000FFE7FFE702B080BD80B540F69050C2F25D
:1009E000000000F085FE80BD80B540F69050C2F258
:1009F000000000F07DFE80BD80B584B003900291C0
:100A0000039801F0D3FA03980168486940F00200A6
:100A1000486103980168486940F0100048610398F4
:100A2000006846F20041C4F20001884216D1FFE797
:100A3000039840F2D001C2F2000108600298886277
:100A400003980023019319461A4607F053FB019BB4
:100A500003980C211A4607F04DFB1FE0039800682D
:100A600046F60001C4F20001884216D1FFE7039860
:100A700040F20411C2F200010860029888620398F3
:100A80007021002300931A4607F034FB009B039863
:100A90007C211A4607F02EFBFFE7FFE704B080BD7C
:100AA00080B582B001900199886F0068B1F880101C
:100AB00040F20402C2F20002082300F003F802B080
:100AC00080BD000080B58CB00B90ADF82A10099263
:100AD000ADF82230BDF82A00029000200390049067
:100AE0000590BDF8220006900B98099A02A901AB67
:100AF00000F072FB0CB080BD80B582B0019001990E
:100B0000886F0068B1F8801040F20C02C2F2000257
:100B10000823FFF7D7FF02B080BD000080B582B088
:100B200004F03EFC05F04AFE40F64410C2F200001C
:100B3000009005F0E7F8009890F84C1040F2FC02A5
:100B4000C2F200020192117090F84D105170E43021
:100B500005F0D8F80098019A90F83011917090F84B
:100B60003111D17000F5E47005F0CCF80098019ACD
:100B700090F81412117190F81512517100F52B7044
:100B800005F0C0F80098019A90F8F812917190F869
:100B9000F902D07140F69050C2F200004FF400719B
:100BA0000823FFF78FFF02B080BD000080B588B03A
:100BB00040F64410C2F2000004900021C4F220214B
:100BC000C0F81C1450309FED3B0A8DED000ADFED9C
:100BD0003A1ACDED011A9FED392A8DED022ADFED8B
:100BE000382ACDED032AF0EE610AB0EE611A05F065
:100BF0009FFD049801210591B3EE030A8DED060ACD
:100C0000DFED300ACDED070A05F008FA9DED000A88
:100C1000DDED011A9DED022ADDED032A049800F5B1
:100C20009A70F0EE610AB0EE611A05F081FD049849
:100C300005999DED060ADDED070AE43005F0EEF9B1
:100C40009DED000ADDED011A9DED022ADDED032A7E
:100C5000049800F50670F0EE610AB0EE611A05F036
:100C600067FD049805999DED060ADDED070A00F57C
:100C7000E47005F0D3F99DED000ADDED011A9DED5C
:100C8000022ADDED032A049800F53F70F0EE610AB8
:100C9000B0EE611A05F04CFD049805999DED060A29
:100CA000DDED070A00F52B7005F0B8F9FFF708FC39
:100CB00008B080BD000048440000000000007A44F5
:100CC00000409C450000004680B582B040F64410CC
:100CD000C2F20000019000F56470FFF76DFC01980E
:100CE00090F8B803012803D1FFE7FFF717FFFFE7EC
:100CF00002B080BD80B540F67860C2F2000001F01D
:100D00004FFA80BD80B540F6D860C2F2000001F015
:100D100047FA80BD80B540F6B850C2F2000001F03D
:100D20003FFA80BD80B540F61860C2F2000001F0C5
:100D300037FA80BD80B540F63870C2F2000001F08D
:100D40002FFA80BD82B001900198007810384AF6E1
:100D5000AB21CAF6AA21A0FB01100009009000995E
:100D600048F6F230C0F60000405C0199C865009872
:100D7000042807D3FFE701990868042262F30900F9
:100D8000886506E00199086840F2FF329043886563
:100D9000FFE70198806D02B07047000086B00590B3
:100DA00000208DF813000598806A039005988069EB
:100DB00010BBFFE70398029003281BD80299DFE8D5
:100DC00001F0020D0218059890F82F00C00720B11D
:100DD000FFE701208DF81300FFE70CE00598C06ADB
:100DE000B0F1C07F04D1FFE701208DF81300FFE7C9
:100DF00001E000E0FFE745E005988069B0F5005F9D
:100E000025D1FFE70398019003281ED80199DFE858
:100E100001F00206021101208DF8130016E005987A
:100E200090F82F00C00720B1FFE701208DF81300D4
:100E3000FFE70BE00598C06AB0F1C07F04D1FFE77F
:100E400001208DF81300FFE700E0FFE719E00398A9
:100E50000090032804D3FFE70098032804D00EE095
:100E600001208DF813000BE0059890F82F00C007C3
:100E700020B1FFE701208DF81300FFE700E0FFE756
:100E8000FFE7FFE79DF8130006B0704784B00390BA
:100E900002910192009303980168086820F4802071
:100EA00008600098039909684860039880684028A2
:100EB00009D1FFE7019803990968886002980399AE
:100EC0000968C86008E00298039909688860019879
:100ED00003990968C860FFE704B0704782B00190C9
:100EE000ADF802100020ADF80000FFE7BDF80000EB
:100EF000BDF80210884211DAFFE70198BDF8002022
:100F0000805C40F23011C2F200011144C876FFE764
:100F1000BDF800000130ADF80000E7E740F2301105
:100F2000C2F20001C87E0A7F40EA02206FF3DF2090
:100F30000880087F4A7FC00840EA42106FF3DF2034
:100F40004880487F8B7FCA7F800940EA830040EA5F
:100F500082206FF3DF20C880C87F91F820204008EE
:100F600040EAC2106FF3DF20888091F82000C0F3C0
:100F70000110C87291F820008009887291F8210050
:100F800091F8222040EA0220888191F8230091F80C
:100F9000242040EA0220C88191F8250091F82620FB
:100FA00040EA0220088291F82700887491F828000E
:100FB000C87491F8290091F82A2040EA0220A1F88B
:100FC000150091F82B0091F82C2040EA02200881AE
:100FD0000888A0F5806008804888A0F58060488077
:100FE0008888A0F580608880C888A0F58060C88067
:100FF0000889A0F58060088108884042088002B016
:101000007047000080B582B00190019841F238012C
:10101000C2F20001884213D1FFE740F23011C2F260
:10102000000140F21050C2F20000C1F81700019810
:1010300041F24501C0F60001122206F0F1FAFFE785
:1010400002B080BD80B582B00190ADF80210019869
:10105000BDF80210FFF742FF02B080BD80B588B036
:1010600007900798806F203003900398007800F075
:101070000F000799B1F8801001F00F01884201D0EC
:10108000FFE79BE0039801300DF1160104F0BCFD71
:101090000399C8780979000140EA1110ADF81400ED
:1010A00003980179407901F00F0140EA0120ADF881
:1010B0001200039800780009079981F8A800BDF88C
:1010C00016000799D1F8C010401A0690069810F53E
:1010D000004F07DAFFE70799D1F8C8000130C1F8DF
:1010E000C8000CE00698B0F5004F07DDFFE7079950
:1010F000D1F8C8000138C1F8C800FFE7FFE7079939
:10110000D1F8C820BDF8160040EA024047F6FF7249
:10111000801AC1F8C400079890ED211A90ED310AA9
:10112000B8EEC00A9FED262A80EE020A20EE010AE0
:1011300030EE000A80ED2B0ABDF814000799D1EDBE
:10114000220A40F2FF71009140F6FF7201929FED7A
:101150001D0A8DED020A04F0A7FD0099019AB0EE78
:10116000401A9DED020A079880ED2C1ABDF8120076
:10117000079BD3ED230A04F097FD079880ED2D0A15
:101180000398807900EE100AB8EEC00A9FED0E1A9F
:1011900030EE010A079880ED2E0A0398C07900EE20
:1011A000100AB8EEC00A30EE010A079880ED2F0A47
:1011B000BDF816000799C1F8C000FFE708B080BD70
:1011C00000FF7F4700000000339388437047000012
:1011D00072B6FFE7FEE7000088B006900591049222
:1011E0000393069890F820008DF807000698006891
:1011F000806800900598806808B9FFE700E0FFE785
:101200009DF80700012806D0FFE79DF80700022897
:1012100040F08080FFE79DF80300400700280CD4D1
:10122000FFE79DF803000007002806D4FFE79DF8BC
:101230000300C006002864D5FFE70098C0F30160F2
:1012400002900299012088400399086005988068FF
:1012500068B9FFE705980168C06840EA41500699FF
:101260000968029A01EB0211C1F880010EE00599AC
:101270004A688868C96840EAC20008430699096854
:10128000029A01EB0211C1F88001FFE7059800699D
:1012900006990968029A01EB0211C1F884010598C8
:1012A000007D01280CD1FFE706980068029900EB49
:1012B0000111D1F8840140F48070C1F88401FFE786
:1012C0000498406806990968029A01EB0211C1F876
:1012D0008C010498006806990968029A01EB0211D2
:1012E000C1F8880106980068029900EB0111D1F855
:1012F000800140F00100C1F8800100208DF81F003E
:1013000011E00699486A40F40010486201208DF807
:101310001F0008E00699486A40F4802048620120D6
:101320008DF81F00FFE79DF81F0008B07047000010
:1013300086B004900391049800680190049890F896
:1013400020008DF803009DF80300012806D0FFE778
:101350009DF80300022840F0B080FFE746F200400D
:10136000C4F2000001900199D1F8000240F00100A0
:10137000C1F800020199D1F8000220F47C50C1F8B4
:1013800000020398426A0199D1F8000240EA022063
:10139000C1F800020398406900F01F010120884055
:1013A0000290029A0199D1F81C029043C1F81C02E4
:1013B0000398C069F0B9FFE7029A0199D1F80C02CD
:1013C0009043C1F80C02039A9088D168526940EAB0
:1013D0000140019901EBC201C1F84002039A108853
:1013E0009168526940EA0140019901EBC201C1F8DC
:1013F0004402FFE70398C06901281ED1FFE7029A63
:101400000199D1F80C021043C1F80C02039A90889C
:101410001168526940EA0140019901EBC201C1F82B
:101420004002039A90899168526940EA014001990B
:1014300001EBC201C1F84402FFE70398806940B99B
:10144000FFE7029A0199D1F804029043C1F804021F
:1014500007E0029A0199D1F804021043C1F804028E
:10146000FFE70398006940B9FFE7029A0199D1F8B4
:1014700014029043C1F8140207E0029A0199D1F8CE
:1014800014021043C1F81402FFE70398006A012810
:1014900008D1FFE7029A0199D1F81C021043C1F864
:1014A0001C02FFE70199D1F8000220F00100C1F809
:1014B000000200208DF8170008E00499486A40F403
:1014C0008020486201208DF81700FFE79DF8170083
:1014D00006B0704781B0009001B0704786B00490AC
:1014E000039102920193049890F820008DF8030074
:1014F0009DF80300012806D0FFE79DF803000228AD
:1015000040F0E880FFE7039880B9FFE7049800689F
:10151000C068800748B9FFE70499486A40F40010A2
:10152000486201208DF81700DDE00FE004980068A4
:101530000069800748B9FFE70499486A40F4001041
:10154000486201208DF81700CDE0FFE7049800689D
:10155000039900EB0110D0F8B00100F004000299EB
:1015600088600298806858B9FFE70498006803997A
:1015700000EB0110D0F8B001400D029908600AE0BC
:1015800004980068039900EB0110D0F8B001C0087E
:1015900002994860FFE704980068039900EB011086
:1015A000D0F8B00100F002000299C8600498006809
:1015B000039900EB0110D0F8B40100F00F000828E7
:1015C00004D3FFE70299082008610BE00498006843
:1015D000039900EB0110D0F8B40100F00F0002995C
:1015E0000861FFE704980068039900EB0110D0F848
:1015F000B40180B2000A02998861049800680399D6
:1016000000EB0110D0F8B401000C02994861049875
:101610000068039900EB0110D0F8B8010199087037
:1016200004980068039900EB0110D0F8B801000A93
:101630000199487004980068039900EB0110D0F8F4
:10164000B801000C0199887004980068039900EBB8
:101650000110D0F8B801000E0199C8700498006814
:10166000039900EB0110D0F8BC01019908710498AE
:101670000068039900EB0110D0F8BC01000A019941
:10168000487104980068039900EB0110D0F8BC0180
:10169000000C0199887104980068039900EB01100F
:1016A000D0F8BC01000E0199C871039838B9FFE762
:1016B00004980168C86840F02000C86006E00498FB
:1016C0000168086940F020000861FFE700208DF8FC
:1016D000170008E00499486A40F48020486201201D
:1016E0008DF81700FFE79DF8170006B0704700005F
:1016F00080B58AB009900020089009980068406978
:10170000079009980068406806900998006880680A
:10171000059009980068C0680490099800680069FD
:10172000039009980068806902909DF81C00C0072A
:10173000002800F09480FFE79DF81400C00758B31C
:10174000FFE709980168012088609DF81400800770
:10175000002804D5FFE7099800F072FC1BE09DF813
:1017600014004007002805D5FFE7089840F4006002
:1017700008900FE09DF814000007002805D5FFE74A
:10178000089840F48050089003E0099800F054FC59
:10179000FFE7FFE7FFE7FFE79DF81500C00760B32D
:1017A000FFE7099801684FF4807088609DF8150084
:1017B0008007002804D5FFE7099800F049FC1BE0EA
:1017C0009DF815004007002805D5FFE7089840F46C
:1017D000005008900FE09DF815000007002805D57F
:1017E000FFE7089840F48040089003E0099800F073
:1017F0002BFCFFE7FFE7FFE7FFE79DF81600C007B8
:1018000060B3FFE7099801684FF4803088609DF865
:1018100016008007002804D5FFE7099800F020FC97
:101820001BE09DF816004007002805D5FFE7089843
:1018300040F4004008900FE09DF8160000070028D3
:1018400005D5FFE7089840F48030089003E0099838
:1018500000F002FCFFE7FFE7FFE7FFE7FFE79DF887
:101860001C000007002810D5FFE79DF81000C006F7
:10187000002809D5FFE7089840F4007008900998FF
:1018800001681020C860FFE7FFE79DF81C004007D3
:1018900000280FD5FFE79DF810000007002808D5A5
:1018A000FFE7099801680820C860099800F0DEFA8F
:1018B000FFE7FFE79DF81C00800700280BD5FFE736
:1018C00009980068C068800720B1FFE7099800F018
:1018D000D1FAFFE7FFE79DF81C004006002810D56D
:1018E000FFE79DF80C00C006002809D5FFE708981F
:1018F00040F4806008900998016810200861FFE7B3
:10190000FFE79DF81C00800600280FD5FFE79DF833
:101910000C000007002808D5FFE709980168082097
:101920000861099800F0F0FAFFE7FFE79DF81C0056
:10193000C00600280BD5FFE70998006800698007FA
:1019400020B1FFE7099800F0E3FAFFE7FFE79DF811
:101950001E00800700280FD5FFE79DF81800C0067D
:10196000002808D5FFE70998016810204860099809
:1019700000F018FBFFE7FFE79DF81E00C00778B1F5
:10198000FFE79DF818000007002808D5FFE7099831
:10199000016808204860099800F066FBFFE7FFE750
:1019A0009DF81D000006002840F18D80FFE79DF89E
:1019B00018004007002840F18180FFE79DF81D00D6
:1019C000C00750B1FFE79DF80800C00728B1FFE746
:1019D000089840F001000890FFE79DF81D0080077F
:1019E00000280BD5FFE79DF808008007002805D5E3
:1019F000FFE7089840F002000890FFE79DF81D00FF
:101A0000400700280BD5FFE79DF808004007002895
:101A100005D5FFE7089840F004000890FFE79DF81F
:101A20001D000007002848D5FFE79DF8080010F0CA
:101A3000700F42D0FFE7029800F07000014601915C
:101A4000102814D0FFE70198202815D0FFE701984F
:101A5000302816D0FFE70198402817D0FFE70198FB
:101A6000502818D0FFE70198602819D01DE0089889
:101A700040F00800089019E0089840F01000089025
:101A800014E0089840F0200008900FE0089840F01B
:101A9000400008900AE0089840F08000089005E0B7
:101AA000089840F48070089000E0FFE7099801680A
:101AB000886920F070008861FFE7FFE709980168F6
:101AC00004204860FFE7089848B1FFE7089A0999A1
:101AD000486A104348620998FFF7FCFCFFE70AB028
:101AE00080BD000080B584B00290029820B9FFE765
:101AF00001208DF80F00E0E0029890F8200020B956
:101B0000FFE7029800F0DEF8FFE702980168086836
:101B100040F00100086000F0E1FF0190FFE702984B
:101B200000684068C007A8B9FFE700F0D7FF019937
:101B3000401A0B280DD3FFE70299486A40F40030A1
:101B400048620299052081F8200001208DF80F00DD
:101B5000B3E0E4E702980168086820F0020008603A
:101B600000F0BCFF0190FFE7029800684068800722
:101B7000002815D5FFE700F0B1FF0199401A0B28A6
:101B80000DD3FFE70299486A40F400304862029999
:101B9000052081F8200001208DF80F008DE0E3E79B
:101BA0000298007E012807D1FFE7029801680868C3
:101BB00040F08000086006E002980168086820F0A4
:101BC00080000860FFE70298407E012807D1FFE708
:101BD00002980168086840F04000086006E002983A
:101BE0000168086820F040000860FFE70298807EE6
:101BF000012807D1FFE702980168086840F020003B
:101C0000086006E002980168086820F0200008607B
:101C1000FFE70298C07E012807D1FFE7029801681C
:101C2000086820F01000086006E002980168086863
:101C300040F010000860FFE70298007F012807D1FC
:101C4000FFE702980168086840F00800086006E0B5
:101C500002980168086820F008000860FFE7029811
:101C6000407F012807D1FFE702980168086840F02B
:101C70000400086006E002980168086820F004008B
:101C80000860FFE7029B19685A689868D3F80CC08F
:101C900040EA0C00D3F810C040EA0C005B6918431E
:101CA000013A1043C861029900204862029A01215A
:101CB00082F820108DF80F00FFE79DF80F0004B0A8
:101CC00080BD000080B592B01190002010900F9060
:101CD0000E900D900C901198006846F20041C4F2ED
:101CE0000001884252D1FFE740F27010C2F20000BA
:101CF0000168013101600068012812D1FFE7FFE7A8
:101D000000200B9043F64000C4F20200016841F04D
:101D100000710160006800F000700B900B98FFE705
:101D2000FFE7FFE700200A9043F63000C4F202000C
:101D3000016841F008010160006800F008000A90A5
:101D40000A98FFE703200C9002210D9100210591D4
:101D50000E910F900920109040F60040C4F202004E
:101D60000CA900F0C7FC059A14200490114600F05D
:101D70004DFF049800F040FF059A1520069011468B
:101D800000F044FF069800F037FF6DE011980068FE
:101D900046F60001C4F20001884264D1FFE7FFE784
:101DA0000020099043F64000C4F20200016841F0AF
:101DB00080610160006800F0806009900998FFE789
:101DC00040F27010C2F20000016801310160006849
:101DD000012812D1FFE7FFE70020089043F64000FA
:101DE000C4F20200016841F000710160006800F077
:101DF000007008900898FFE7FFE7FFE700200790D2
:101E000043F63000C4F20200016841F002010160B3
:101E1000006800F0020007900798FFE760200C9030
:101E200002200D90002002900E9003200F900920B8
:101E3000109040F20040C4F202000CA900F05AFCDD
:101E4000029A40200190114600F0E0FE019800F057
:101E5000D3FE029A41200390114600F0D7FE03986A
:101E600000F0CAFEFFE7FFE712B080BD81B000902E
:101E700001B0704780B584B003900398006846F2C3
:101E80000041C4F20001884219D1FFE7039840F2F3
:101E9000D001C2F2000102910A1D01F120030021CC
:101EA000FFF71CFB0298806A40B1FFE740F2D000C8
:101EB000C2F20000816A04308847FFE722E00398FD
:101EC000006846F60001C4F20001884219D1FFE71C
:101ED000039840F20411C2F2000101910A1D01F1C0
:101EE00020030021FFF7FAFA0198806A40B1FFE76A
:101EF00040F20410C2F20000816A04308847FFE714
:101F0000FFE7FFE704B080BD81B0009001B07047EB
:101F100080B584B003900398006846F20041C4F293
:101F20000001884219D1FFE7039840F2D001C2F2C4
:101F3000000102910A1D01F120030121FFF7CEFAF1
:101F40000298806A40B1FFE740F2D000C2F2000080
:101F5000816A04308847FFE722E00398006846F66C
:101F60000001C4F20001884219D1FFE7039840F252
:101F70000411C2F2000101910A1D01F120030121A7
:101F8000FFF7ACFA0198806A40B1FFE740F2041015
:101F9000C2F20000816A04308847FFE7FFE7FFE7ED
:101FA00004B080BD81B0009001B0704780B584B0AE
:101FB0000290029890F8200001282FD1FFE70299A3
:101FC000022081F8200002980168086820F00100D2
:101FD000086000F083FD0190FFE702980068406808
:101FE000C007A8B1FFE700F079FD0199401A0B285E
:101FF0000DD3FFE70299486A40F400304862029925
:10200000052081F8200001208DF80F000FE0E4E7A3
:102010000299002048628DF80F0008E00299486A92
:1020200040F40020486201208DF80F00FFE79DF882
:102030000F0004B080BD000081B0009001B0704777
:1020400081B0009001B0704781B0009001B070473E
:1020500081B0009001B0704781B0009001B070472E
:1020600081B0009001B0704781B0009001B070471E
:1020700080B584B002900298806D019000F02EFD32
:102080000090029890F8350002280DD0FFE70299E1
:1020900080204865FFE70299002081F83400FFE7BF
:1020A00001208DF80F0055E002980168086820F0C3
:1020B0001600086002980168486920F080004861B5
:1020C0000298006C20B9FFE70298806C38B1FFE7F6
:1020D00002980168086820F008000860FFE702988D
:1020E0000168086820F001000860FFE702980068B6
:1020F0000068C007C8B1FFE700F0F0FC0099401A83
:10210000062811D3FFE70299202048650299032091
:1021100081F83500FFE70299002081F83400FFE7DD
:1021200003208DF80F0015E0E0E70298C16D3F2015
:102130008840019988600299012081F83500FFE705
:102140000299002081F83400FFE7FFE700208DF8B6
:102150000F00FFE79DF80F0004B080BD82B0009033
:10216000009890F83500022807D0FFE700998020FA
:10217000486501208DF807000EE00099052081F8E0
:10218000350000980168086820F001000860FFE74A
:1021900000208DF80700FFE79DF8070002B07047A8
:1021A00080B586B005900020039040F21400C2F282
:1021B0000000006848F2B511C1F64E31A0FB0110D5
:1021C000800A02900598806D019001980068049043
:1021D00004980599C96DC840000700281AD5FFE783
:1021E0000598006800684007002812D5FFE70598A9
:1021F0000168086820F0040008600598C16D082097
:102200008840019988600599486D40F00100486553
:10221000FFE7FFE704980599C96DC840C007A0B162
:10222000FFE7059800684069000600280CD5FFE725
:102230000598C16D01208840019988600599486D15
:1022400040F002004865FFE7FFE704980599C96D73
:10225000C8404007002814D5FFE7059800680068CB
:10226000800700280CD5FFE70598C16D0420884041
:10227000019988600599486D40F004004865FFE7C2
:10228000FFE704980599C96DC840C006002847D5E6
:10229000FFE7059800680068000700283FD5FFE7C2
:1022A0000598C16D102088400199886005980068E4
:1022B0000068400300281AD5FFE705980068006809
:1022C0000003002809D4FFE70598006C20B1FFE760
:1022D0000598016C8847FFE708E00598806C20B1FD
:1022E000FFE70598816C8847FFE7FFE716E0059850
:1022F00000680068C005002807D4FFE7059801685A
:10230000086820F008000860FFE70598006C20B11D
:10231000FFE70598016C8847FFE7FFE7FFE7FFE766
:1023200004980599C96DC8408006002840F18D8049
:10233000FFE7059800680068C006002840F1848027
:10234000FFE70598C16D20208840019988600598B5
:1023500090F83500052834D1FFE705980168086832
:1023600020F01600086005980168486920F0800098
:1023700048610598006C20B9FFE70598806C38B17A
:10238000FFE705980168086820F008000860FFE78B
:102390000598C16D3F20884001998860059901200A
:1023A00081F83500FFE70599002081F83400FFE748
:1023B0000598006D20B1FFE70598016D8847FFE79C
:1023C0007BE0059800680068400300281AD5FFE705
:1023D0000598006800680003002809D4FFE7059805
:1023E000406C20B1FFE70598416C8847FFE708E0A3
:1023F0000598C06B20B1FFE70598C16B8847FFE7E0
:10240000FFE720E0059800680068C005002811D4A7
:10241000FFE705980168086820F01000086005993A
:10242000012081F83500FFE70599002081F834008C
:10243000FFE7FFE70598C06B20B1FFE70598C16B88
:102440008847FFE7FFE7FFE7FFE70598406DA0B388
:10245000FFE70598406DC00730B3FFE705990520F9
:1024600081F8350005980168086820F001000860CF
:10247000FFE70398013003900299884201D9FFE7F2
:1024800007E0FFE7059800680068C0070028F0D162
:10249000FFE70599012081F83500FFE70599002045
:1024A00081F83400FFE7FFE70598C06C20B1FFE733
:1024B0000598C16C8847FFE7FFE706B080BD0000C4
:1024C00080B586B004900020039000F007FB0290D6
:1024D000049820B9FFE701208DF81700A3E00498C5
:1024E000406A08B1FFE7FFE70499022081F8350050
:1024F000FFE70499002081F83400FFE704980168A1
:10250000086820F001000860FFE704980068006890
:10251000C00790B1FFE700F0E1FA0299401A0628DF
:102520000AD3FFE70499202048650499032081F825
:1025300035008DF8170076E0E7E70498006800683A
:102540000390039848F23F01CFF210010840039036
:10255000049900914868D1F808C0CB680A6940EA3C
:102560000C00184310434A6910438A691043CA6932
:102570001043096A01430398084303900498406A92
:10258000042808D1FFE70499C86A096B014303983E
:1025900008430390FFE703980499096808600498CA
:1025A000006840690390039820F0070003900498A6
:1025B000416A0398084303900498406A04281AD19A
:1025C000FFE70498816A0398084303900498C06A5F
:1025D00080B1FFE70498FEF7E1FB50B1FFE70499F3
:1025E000402048650499012081F835008DF81700D6
:1025F00019E0FFE7FFE70398049909684861049828
:10260000FEF7A0FB01900498C16D3F20884001991E
:102610008860049900204865049A012182F83510E9
:102620008DF81700FFE79DF8170006B080BD000089
:1026300080B588B0069005910492039300208DF830
:102640000B000698806D0190FFE7069890F8340023
:10265000012804D1FFE702208DF81F0045E006990C
:10266000012081F83400FFE7FFE7069890F8350075
:1026700001282BD1FFE70699022081F83500069941
:102680000020486506980599049A039BFEF7FEFB17
:102690000698C16D3F2088400199886006980168BE
:1026A000086840F0160008600698006C38B1FFE733
:1026B00006980168086840F008000860FFE706987F
:1026C0000168086840F00100086009E0FFE706992A
:1026D000002081F83400FFE702208DF80B00FFE7AF
:1026E0009DF80B008DF81F00FFE79DF81F0008B054
:1026F00080BD00008EB00D900C9100200A900990D2
:1027000008900B90FFE70B980F2800F2CC81FFE7B1
:102710000B99012088400A900C9800680A9908409B
:10272000099009980A99884240F0B881FFE70C980F
:10273000406800F00300012807D0FFE70C984068CC
:1027400000F0030002282FD1FFE70D988068089061
:102750000B984100032000FA01F108988843089083
:102760000C98C0680B99490000FA01F108980843D9
:10277000089008980D9988600D98406808900B990A
:10278000012000FA01F10898884308900C984068ED
:10279000C0F300100B9900FA01F108980843089063
:1027A00008980D994860FFE70C98406800F0030016
:1027B000032818D0FFE70D98C06808900B984100D7
:1027C000032000FA01F10898884308900C9880686B
:1027D0000B99490000FA01F10898084308900898FD
:1027E0000D99C860FFE70C98406800F003000228CC
:1027F00026D1FFE70D980B996FF0030202EA510111
:102800000844006A08900B9800F0070081000F2030
:1028100000FA01F10898884308900C9800690B9918
:1028200001F00701890000FA01F1089808430890B7
:1028300008980D990B9B02EA530211440862FFE7C6
:102840000D98006808900B984100032000FA01F1F0
:102850000898884308900C98406800F003000B9992
:10286000490000FA01F108980843089008980D996A
:1028700008600C9880798007002800F00E81FFE73F
:10288000FFE70020079043F64400C4F2020001680D
:1028900041F480410160006800F48040079007988F
:1028A000FFE70B9820F0030043F60801C4F2010192
:1028B000405808900B9800F0030081000F2000FAA8
:1028C00001F10898884308900D980021C4F2020194
:1028D000884203D1FFE7002006905EE00D9840F2A9
:1028E0000041C4F20201884203D1FFE701200590B4
:1028F00050E00D9840F60001C4F20201884203D175
:10290000FFE70220049042E00D9840F60041C4F237
:102910000201884203D1FFE70320039034E00D98C1
:1029200041F20001C4F20201884203D1FFE7042012
:10293000029026E00D9841F20041C4F20201884263
:1029400003D1FFE70520019018E00D9841F6000142
:10295000C4F20201884203D1FFE7062000900AE09A
:102960000D9941F60042C4F202020820914208BFCC
:1029700007200090FFE700980190FFE70198029080
:10298000FFE702980390FFE703980490FFE704989D
:102990000590FFE705980690FFE70698C0B20B99EF
:1029A00001F00301890000FA01F10898084308903A
:1029B00008980B9921F0030143F60802C4F20102C2
:1029C000885043F60840C4F2010000680890099955
:1029D0000898884308900C988079C006002805D58F
:1029E000FFE70999089808430890FFE7089843F61D
:1029F0000841C4F20101086043F60C40C4F2010032
:102A00000068089009990898884308900C98807984
:102A10008006002805D5FFE7099908980843089023
:102A2000FFE7089843F60C41C4F20101086043F641
:102A30000440C4F20100006808900999089888438E
:102A400008900C9880798007002805D5FFE7099940
:102A5000089808430890FFE7089843F60441C4F239
:102A60000101086043F60040C4F2010000680890CC
:102A700009990898884308900C988079C00728B174
:102A8000FFE70999089808430890FFE7089843F67C
:102A90000041C4F201010860FFE7FFE7FFE70B9880
:102AA00001300B902FE60EB07047000082B001900D
:102AB000ADF802108DF801209DF8010028B1FFE764
:102AC000BDF802000199886105E0BDF8020000042C
:102AD00001998861FFE702B07047000041F2C80029
:102AE000C2F200000068704740F21800C2F2000015
:102AF000027841F2C801C2F200010868104408607F
:102B00007047000080B543F60041C4F20201086836
:102B100040F400700860086840F48060086008684D
:102B200040F480700860032000F08AF80F2000F065
:102B300005F800F03BF8002080BD000080B582B0B1
:102B4000009040F21400C2F20000006840F2180148
:102B5000C2F200010A784FF47A71B1FBF2F1B0FBD6
:102B6000F1F001F0E9F920B1FFE701208DF807004D
:102B700018E000980F280DD8FFE700994FF0FF30BC
:102B8000002200F043F8009840F21C01C2F200015C
:102B9000086003E001208DF8070003E000208DF8B5
:102BA0000700FFE79DF8070002B080BD82B0FFE795
:102BB0000020019043F64400C4F20200016841F491
:102BC00080410160006800F4804001900198FFE7B7
:102BD000FFE70020009043F64000C4F202000168C5
:102BE00041F080510160006800F080500090009832
:102BF000FFE702B07047000080B582B08DF8070093
:102C00009DF9070004F0F6FF02B080BD80B586B0E4
:102C10008DF81700049103920020029005F002F84D
:102C200002909DF91700019002980499039A03F00D
:102C3000FBFB0146019804F0FDFF06B080BD0000DB
:102C400080B582B00190019805F016F802B080BD01
:102C500080B584B002900191029820B9FFE701206D
:102C60008DF80F0021E1019843F60041C4F2020102
:102C7000096801F00701884212D9FFE7019943F67C
:102C80000040C4F202000170006800F007000199E2
:102C9000884204D0FFE701208DF80F0005E1FFE72F
:102CA00002980078800700282AD5FFE7029800786C
:102CB0004007002809D5FFE743F60801C4F20201E6
:102CC000086840F4E0500860FFE7029800780007C9
:102CD000002809D5FFE743F60801C4F2020108689D
:102CE00040F460400860FFE743F60801C4F20201C7
:102CF000086820F0F000029A926810430860FFE72D
:102D000002980078C00700286ED0FFE7029840685C
:102D1000012811D1FFE743F60000C4F20200006869
:102D200000F400310020B0EB514F04D1FFE7012047
:102D30008DF80F00B9E02CE002984068022805D019
:102D4000FFE702984068032811D1FFE743F600002F
:102D5000C4F20200006800F000710020B0EB516F77
:102D600004D1FFE701208DF80F009EE010E043F64C
:102D70000000C4F20200006800F002010020B0EB85
:102D8000510F04D1FFE701208DF80F008DE0FFE720
:102D9000FFE743F60801C4F20201086820F00300CF
:102DA000029A526810430860FFF798FE0090FFE710
:102DB00043F60800C4F20200006800F00C0002991B
:102DC0004968B0EB810F0ED0FFE7FFF787FE00994F
:102DD000401A41F28931884204D3FFE703208DF87D
:102DE0000F0062E0E4E7FFE7019843F60041C4F218
:102DF0000201096801F00701884212D2FFE7019938
:102E000043F60040C4F202000170006800F00700C1
:102E10000199884204D0FFE701208DF80F0044E0BB
:102E2000FFE702980078400700280CD5FFE743F63B
:102E30000801C4F20201086820F4E050029AD26846
:102E400010430860FFE702980078000700280DD5BE
:102E5000FFE743F60801C4F20201086820F460406D
:102E6000029A126940EAC2000860FFE700F04CF8DD
:102E700043F60801C4F202010968C9B20A0948F61A
:102E8000DA31C0F60001895CC84040F21401C2F298
:102E90000001086040F21C00C2F200000068FFF769
:102EA0004DFE00208DF80F00FFE79DF80F0004B0E5
:102EB00080BD000040F21400C2F2000000687047BC
:102EC00080B5FFF7F7FF43F60801C4F20201096875
:102ED000C1F3822248F6EA31C0F60001895CC8409D
:102EE00080BD000080B5FFF7E5FF43F60801C4F29E
:102EF0000201096889B24A0B48F6EA31C0F60001BE
:102F0000895CC84080BD000080B586B00020059077
:102F100004900390029043F60800C4F20200006897
:102F200000F00C000146019140B1FFE70198042830
:102F30000AD0FFE7019808280CD04FE042F2004089
:102F4000C0F2F40002904FE041F60030C0F2B7004A
:102F5000029049E043F60400C4F20200016801F067
:102F60003F01059100684002002813D5FFE743F6B2
:102F70000400C4F202000068C0F3881041F600317A
:102F8000C0F2B701A0FB0101059A0023FDF782F909
:102F9000049012E043F60400C4F202000068C0F39B
:102FA000881042F20041C0F2F401A0FB0101059A31
:102FB0000023FDF76FF90490FFE743F60400C4F225
:102FC0000200006800F44031022000EBD130039091
:102FD00004980399B0FBF1F0029005E042F2004042
:102FE000C0F2F4000290FFE7029806B080BD000036
:102FF00080B586B00490049820B9FFE701208DF8D1
:10300000170050E304980078C007002800F0A5805E
:10301000FFE743F60800C4F20200006800F00C006D
:10302000042813D0FFE743F60800C4F2020000684A
:1030300000F00C0008281ED1FFE743F60400C4F29C
:10304000020000684002002815D5FFE743F60000A3
:10305000C4F20200006800F400310020B0EB514FD0
:1030600008D0FFE70498406820B9FFE701208DF8F9
:10307000170018E370E0FFE704984068B0F5803F60
:1030800009D1FFE743F60001C4F20201086840F4E9
:103090008030086020E004984068B0F5A02F0DD182
:1030A000FFE743F60001C4F20201086840F4802003
:1030B0000860086840F4803008600CE043F60001C6
:1030C000C4F20201086820F480300860086820F427
:1030D00080200860FFE7FFE7FFE704984068E8B159
:1030E000FFE7FFF7FBFC0390FFE743F60000C4F2A5
:1030F0000200006800F400310020B0EB514F0CD109
:10310000FFE7FFF7EBFC0399401A652804D3FFE7BC
:1031100003208DF81700C6E2E7E71CE0FFF7DEFCAE
:103120000390FFE743F60000C4F20200006800F4D9
:1031300000310020B0EB514F0CD0FFE7FFF7CEFC81
:103140000399401A652804D3FFE703208DF8170080
:10315000A9E2E7E7FFE7FFE7FFE7049800788007C9
:10316000002840F19680FFE743F60800C4F2020011
:10317000006810F00C0F13D0FFE743F60800C4F20C
:103180000200006800F00C0008282CD1FFE743F68D
:103190000400C4F2020000684002002823D4FFE7C4
:1031A00043F60000C4F20200006800F002010020B3
:1031B000B0EB510F09D0FFE70498C068012804D094
:1031C000FFE701208DF817006DE243F60001C4F21D
:1031D0000201086820F0F800049A126940EAC2006F
:1031E0000860FFE754E00498C06870B3FFE700216F
:1031F000C4F2472101200860FFF770FC0390FFE74D
:1032000043F60000C4F20200006800F00201002052
:10321000B0EB510F0CD1FFE7FFF760FC0399401AA8
:10322000032804D3FFE703208DF817003BE2E7E70C
:1032300043F60001C4F20201086820F0F800049A85
:10324000126940EAC200086021E00021C4F247216F
:1032500000200860FFF742FC0390FFE743F6000000
:10326000C4F20200006800F002010020B0EB510F30
:103270000CD0FFE7FFF732FC0399401A032804D370
:10328000FFE703208DF817000DE2E7E7FFE7FFE710
:10329000FFE704980078000700284BD5FFE7049863
:1032A000406918B3FFE740F68061C4F2472101206E
:1032B0000860FFF713FC0390FFE743F67400C4F2C5
:1032C0000200006800F002010020B0EB510F0CD1A9
:1032D000FFE7FFF703FC0399401A032804D3FFE735
:1032E00003208DF81700DEE1E7E722E040F6806179
:1032F000C4F2472100200860FFF7F0FB0390FFE7CE
:1033000043F67400C4F20200006800F002010020DD
:10331000B0EB510F0CD0FFE7FFF7E0FB0399401A29
:10332000032804D3FFE703208DF81700BBE1E7E78C
:10333000FFE7FFE7049800784007002840F1CE80BF
:10334000FFE700208DF8070043F64000C4F20200BA
:103350000068C000002815D4FFE7FFE700200090B8
:1033600043F64000C4F20200016841F08051016060
:10337000006800F0805000900098FFE701208DF871
:103380000700FFE747F20000C4F200000068C00534
:10339000002822D4FFE747F20001C4F200010868C8
:1033A00040F480700860FFF799FB0390FFE747F255
:1033B0000000C4F200000068C00500280CD4FFE73C
:1033C000FFF78CFB0399401A032804D3FFE703207F
:1033D0008DF8170067E1EAE7FFE7FFE704988068E8
:1033E000012809D1FFE743F67001C4F20201086821
:1033F00040F0010008601FE00498806805280DD1A6
:10340000FFE743F67001C4F20201086840F00400CF
:103410000860086840F0010008600CE043F67001A5
:10342000C4F20201086820F001000860086820F07A
:1034300004000860FFE7FFE7FFE704988068F8B141
:10344000FFE7FFF74BFB0390FFE743F67000C4F282
:103450000200006800F002010020B0EB510F0ED115
:10346000FFE7FFF73BFB0399401A41F2893188429D
:1034700004D3FFE703208DF8170014E1E5E71EE011
:10348000FFF72CFB0390FFE743F67000C4F2020045
:10349000006800F002010020B0EB510F0ED0FFE7F2
:1034A000FFF71CFB0399401A41F28931884204D38B
:1034B000FFE703208DF81700F5E0E5E7FFE79DF84B
:1034C0000700012809D1FFE743F64001C4F20201D9
:1034D000086820F080500860FFE7FFE704988069E3
:1034E000002800F0DC80FFE743F60800C4F2020089
:1034F000006800F00C00082800F08580FFE70498C1
:10350000806902285CD1FFE76021C4F247210020D6
:103510000860FFF7E3FA0390FFE743F60000C4F208
:103520000200006800F000710020B0EB516F0CD079
:10353000FFE7FFF7D3FA0399401A032804D3FFE704
:1035400003208DF81700AEE0E7E70499C869D1F8C9
:1035500020C04B6A8A6A40EA0C0040EA8310D2031A
:103560004FF6FF739A43A2F580321043C96A40EACE
:10357000016043F60401C4F2020108606021C4F254
:10358000472101200860FFF7A9FA0390FFE743F6FF
:103590000000C4F20200006800F000710020B0EBEF
:1035A000516F0CD1FFE7FFF799FA0399401A0328EE
:1035B00004D3FFE703208DF8170074E0E7E721E06C
:1035C0006021C4F2472100200860FFF787FA0390CA
:1035D000FFE743F60000C4F20200006800F000714B
:1035E0000020B0EB516F0CD0FFE7FFF777FA03999B
:1035F000401A032804D3FFE703208DF8170052E098
:10360000E7E7FFE74AE004988069012804D1FFE773
:1036100001208DF8170046E043F60400C4F20200D2
:103620000068029004988069012831D0FFE7029871
:1036300000F480000499C969884229D1FFE7029803
:1036400000F03F000499096A884221D1FFE70298FF
:1036500047F6C07108400499496AB0EB811F17D141
:10366000FFE7029800F440300499896AC9034FF6D5
:10367000FF729143A1F58031884209D1FFE702989A
:1036800000F070600499C96AB0EB016F04D0FFE7E5
:1036900001208DF8170006E0FFE7FFE7FFE70020B5
:1036A0008DF81700FFE79DF8170006B080BD0000F9
:1036B00081B0009001B0704780B588B0079007983E
:1036C00000684068069007980068806805909DF83B
:1036D000140000F040010020B0EB911F11D1FFE772
:1036E0000598C00768B1FFE79DF8180000F0400199
:1036F0000020B0EB911F04D0FFE70798016C8847CA
:10370000F0E09DF8140000F002010020B0EB510F32
:103710000BD0FFE79DF818100020B0EBD11F04D0AC
:10372000FFE70798416C8847DCE09DF8140000F043
:1037300020010020B0EB511F10D1FFE79DF81400CD
:1037400000F040010020B0EB911F07D1FFE79DF88A
:103750001500C007002800F0C580FFE79DF818009D
:1037600000F020010020B0EB511F00F0BB80FFE70C
:103770009DF8140000F040010020B0EB911F28D00C
:10378000FFE7079890F85100032813D0FFE7079947
:10379000486D40F004004865FFE70020049007985A
:1037A0000068C068049007980068806804900498D6
:1037B000FFE70DE0FFE70020039007980068C0686E
:1037C000039007980068806803900398FFE789E0FA
:1037D000FFE79DF8140000F020010020B0EB511F1E
:1037E00015D0FFE70799486D40F001004865FFE7F5
:1037F000002002900798006880680290079801688E
:10380000086820F0400008600298FFE7FFE79DF895
:103810001500C00778B1FFE70799486D40F0080030
:103820004865FFE7002001900798006880680190D4
:103830000198FFE7FFE70798406D002851D0FFE7A8
:1038400007980168486820F0E00048600799012067
:1038500081F85100069800F00200022805D0FFE729
:103860009DF81800C007B8B3FFE7079801684868DB
:1038700020F0030048600798C06CA0B1FFE70798EC
:10388000C16C46F6F900C0F6000008650798C06CE8
:10389000FEF764FC30B1FFE70799486D40F0400047
:1038A0004865FFE7FFE70798806CA0B1FFE707983E
:1038B000816C46F6F900C0F6000008650798806C38
:1038C000FEF74CFC30B1FFE70799486D40F040002F
:1038D0004865FFE7FFE703E00798FFF7E9FEFFE72A
:1038E000FFE7FFE708B080BD80B584B00290029882
:1038F00020B9FFE701208DF80F0072E00298406ABE
:1039000060B9FFE702984068B0F5827F01D1FFE718
:1039100003E002990020C861FFE705E0029900205A
:10392000086102994861FFE70299002088620298C5
:1039300090F8510040B9FFE70299002081F850004B
:10394000029800F053F8FFE70299022081F8510035
:1039500002980168086820F040000860029A01920D
:1039600011685068D2F808C0D36800F482700CF473
:10397000044C604403F400631844136903F0020329
:103980001844536903F001031844936903F4007366
:103990001844D36903F038031844136A03F0800312
:1039A0001843926A02F400521043086002980168BA
:1039B0008369426A042000EA134002F010021044B6
:1039C000486002980168C86920F40060C8610299E3
:1039D00000204865029A012182F851108DF80F00ED
:1039E000FFE79DF80F0004B080BD000080B592B0E5
:1039F0001190002010900F900E900D900C90119847
:103A0000006843F20001C4F20101884240F0BF8027
:103A1000FFE7FFE700200B9043F64400C4F20200EA
:103A2000016841F480510160006800F480500B90FF
:103A30000B98FFE7FFE700200A9043F63000C4F23E
:103A40000200016841F002010160006800F002001C
:103A50000A900A98FFE7FFE70020099043F630003C
:103A6000C4F20200016841F001010160006800F049
:103A7000010009900998FFE718200C90022003909C
:103A80000D90002007900E90032004900F900520C9
:103A90000590109040F20040C4F202000CA906917B
:103AA000FEF728FEDDF80CC0049A05980699079BDE
:103AB0004FF0800ECDF830E0CDF834C00E930F9269
:103AC00010900020C4F20200FEF714FE079940F6A1
:103AD000B850C2F20000089046F24042C4F202021E
:103AE00002604FF0C06242608160C1604FF480624A
:103AF000026141618161C1614FF440320262416201
:103B0000FEF7DEFC18B1FFE7FDF762FBFFE7FFE71A
:103B1000119840F6B851C2F20001C164119888634F
:103B2000FFE740F61860C2F20000029046F25841EA
:103B3000C4F2020101604FF0C06141604021816028
:103B40000021C1604FF48062026141618161C16105
:103B50004FF4003202624162FEF7B2FC18B1FFE797
:103B6000FDF736FBFFE7FFE7119840F61861C2F258
:103B70000001816411988863FFE7232001900022EF
:103B80001146FFF743F80198FFF736F8FFE712B048
:103B900080BD000080B58CB0DDF838C00A90099176
:103BA0000892ADF81E3001200390FEF797FF0490B5
:103BB0000A9890F851008DF817000A98406806900E
:103BC000BDF81E00ADF81C009DF81700012812D0AA
:103BD000FFE70698B0F5827F09D1FFE70A98806871
:103BE00028B9FFE79DF81700042804D0FFE702205A
:103BF0008DF82F009BE1099838B1FFE7089820B1B4
:103C0000FFE7BDF81E0020B9FFE701208DF82F0067
:103C10008DE1FFE70A9890F85000012804D1FFE7F2
:103C200002208DF82F0082E10A99012081F85000CE
:103C3000FFE7FFE70A9890F85100042805D0FFE756
:103C40000A99052081F85100FFE70A99002048658C
:103C500008990A9A9163BDF81E100A9AD187BDF897
:103C60001E100A9A918709990A9A1163BDF81E10CD
:103C70000A9AD186BDF81E100A9A91860A9908649C
:103C80000A9948640A980068006800F040004028DB
:103C900007D0FFE70A980168086840F04000086014
:103CA000FFE70A98C068B0F5006F40F08180FFE739
:103CB0000A98406828B1FFE7BDF81C0001280ED122
:103CC000FFE70A980168006B0088C8600A99086BD2
:103CD000023008630A99C88E0138C886FFE7FFE7FB
:103CE0000A98C18E0120019039B9FFE70A98C08F68
:103CF000002818BF01200190FFE70198C0070028A5
:103D000055D0FFE70A98006880688007002818D51A
:103D1000FFE70A98C08EA0B1FFE70398012810D1F1
:103D2000FFE70A980168006B0088C8600A99086B71
:103D3000023008630A99C88E0138C88600200390B3
:103D4000FFE70A9800688068C007A8B1FFE70A98F3
:103D5000C08F88B1FFE70A980068C0680A99896B2C
:103D600008800A99886B023088630A99C88F0138E5
:103D7000C88701200390FFE7FEF7B0FE0499401AC0
:103D80000E99884212D3FFE70E98013070B1FFE719
:103D90000A99012081F85100FFE70A99002081F873
:103DA0005000FFE703208DF82F00C0E098E782E085
:103DB0000A98406828B1FFE7BDF81C0001280ED121
:103DC000FFE70A980168006B007808730A99086B8E
:103DD000013008630A99C88E0138C886FFE7FFE7FB
:103DE0000A98C18E0120009039B9FFE70A98C08F68
:103DF000002818BF01200090FFE70098C0070028A6
:103E000058D0FFE70A98006880688007002818D516
:103E1000FFE70A98C08EA0B1FFE70398012810D1F0
:103E2000FFE70A980168006B007808730A99086B2D
:103E3000013008630A99C88E0138C88600200390B3
:103E4000FFE70A9800688068C007A8B1FFE70A98F2
:103E5000C08F88B1FFE70A980068C0680A99896B2B
:103E600008700A99886B013088630A99C88F0138F5
:103E7000C88701200390FFE7FEF730FE0499401A3F
:103E80000E99884204D3FFE70E98013018B9FFE776
:103E90000E9870B9FFE70A99012081F85100FFE7F9
:103EA0000A99002081F85000FFE703208DF82F00C9
:103EB0003DE095E7FFE70A980E99049A02F02CFD81
:103EC00068B1FFE70A9920204865FFE70A990020BA
:103ED00081F85000FFE701208DF82F0027E00A98B5
:103EE000806870B9FFE7FFE7002002900A98006839
:103EF000C06802900A980068806802900298FFE704
:103F0000FFE70A99012081F85100FFE70A99002094
:103F100081F85000FFE70A98406D20B1FFE70120CB
:103F20008DF82F0003E000208DF82F00FFE79DF8AB
:103F30002F000CB080BD000080B582B001900198C8
:103F400002F0D6FE02B080BD81B0009001B0704793
:103F500081B0009001B0704785B003900291FFE7F7
:103F6000039890F83C00012804D1FFE702208DF867
:103F700013007EE00399012081F83C00FFE7FFE792
:103F80000399022081F83D00039800684068019081
:103F90000398006880680090019820F070000190FC
:103FA00002980168019808430190019803990968F3
:103FB0004860039800680021C4F2010188423CD0A7
:103FC000FFE703980068B0F1804F36D0FFE7039811
:103FD000006840F20041C4F2000188422DD0FFE7A2
:103FE0000398006840F60001C4F20001884224D022
:103FF000FFE70398006840F60041C4F200018842E0
:104000001BD0FFE70398006840F20041C4F20101B1
:10401000884212D0FFE70398006844F20001C4F21E
:104020000101884209D0FFE70398006841F60001CA
:10403000C4F2000188420ED1FFE7009820F0800012
:1040400000900298416800980843009000980399F6
:1040500009688860FFE70399012081F83D00FFE7C8
:104060000399002081F83C00FFE700208DF8130041
:10407000FFE79DF8130005B07047000080B582B0DF
:104080000090009820B9FFE701208DF807003FE07D
:10409000009890F83D0040B9FFE70099002081F8B2
:1040A0003C00009800F038F8FFE70099022081F802
:1040B0003D00009951F8040B02F0C0FE0099012068
:1040C00081F84600FFE70099012081F83E00009941
:1040D00081F83F00009981F84000009981F8410083
:1040E000FFE7FFE70099012081F84200009981F87D
:1040F0004300009981F84400009981F84500FFE7EA
:104100000099012081F83D0000208DF80700FFE7AD
:104110009DF8070002B080BD80B584B0039003987D
:10412000006840F20041C4F2000188421BD1FFE761
:10413000FFE70020029043F64000C4F2020001684D
:1041400041F002010160006800F002000290029854
:10415000FFE71D20019000221146FEF757FD019850
:10416000FEF74AFDFFE704B080BD000083B0019078
:10417000019890F83D00012804D0FFE701208DF858
:104180000B006AE00199022081F83D000198016866
:10419000C86840F00100C860019800680021C4F2BE
:1041A000010188423CD0FFE701980068B0F1804FE0
:1041B00036D0FFE70198006840F20041C4F20001E8
:1041C00088422DD0FFE70198006840F60001C4F254
:1041D0000001884224D0FFE70198006840F60041C2
:1041E000C4F2000188421BD0FFE70198006840F24A
:1041F0000041C4F20101884212D0FFE70198006833
:1042000044F20001C4F20101884209D0FFE701989D
:10421000006841F60001C4F20001884212D1FFE7B4
:1042200001980068806800F0070000900098062858
:1042300007D0FFE701980168086840F001000860B6
:10424000FFE706E001980168086840F00100086097
:10425000FFE700208DF80B00FFE79DF80B0003B08F
:104260007047000080B586B00490039100208DF85F
:104270000B00FFE7049890F83C00012804D1FFE709
:1042800002208DF81700ABE00499012081F83C0072
:10429000FFE7FFE70499022081F83D0004980068D9
:1042A00080680190019820F077000190019820F437
:1042B0007F4001900198049909688860039800681C
:1042C0000090002872D0FFE7009810286ED0FFE71A
:1042D000009820286AD0FFE70098302866D0FFE7D2
:1042E0000098402855D0FFE70098502837D0FFE7C6
:1042F0000098602840D0FFE7009870280BD0FFE7B7
:104300000098B0F5805F05D0FFE70098B0F5005F3A
:1043100016D052E055E004980068039B5A689968EB
:10432000DB6802F063FE04980068806801900198E1
:1043300040F077000190019804990968886040E096
:1043400004980068039B5A689968DB6802F04EFE87
:1043500004980168886840F48040886031E00498DF
:104360000068039A5168D26802F07AFF04980068E6
:10437000502102F055FE24E004980068039A516829
:10438000D26802F095FF04980068602102F048FEB0
:1043900017E004980068039A5168D26802F060FF41
:1043A00004980068402102F03BFE0AE0049800688F
:1043B0000399096802F034FE03E001208DF80B0038
:1043C000FFE70499012081F83D00FFE704990020F0
:1043D00081F83C00FFE79DF80B008DF81700FFE720
:1043E0009DF8170006B080BD81B0009001B0704705
:1043F00080B584B0039003980068C0680290039869
:104400000068006901909DF804008007002824D509
:10441000FFE79DF80800800700281DD5FFE70398F7
:1044200001686FF002000861039901200877039882
:1044300000688069800720B1FFE70398FFF7D4FF89
:1044400006E0039800F0E2F8039800F0E3F8FFE7D5
:10445000039900200877FFE7FFE79DF80400400775
:10446000002825D5FFE79DF80800400700281ED545
:10447000FFE7039801686FF00400086103990220C8
:10448000087703980068806910F4407F04D0FFE744
:104490000398FFF7A9FF06E0039800F0B7F8039828
:1044A00000F0B8F8FFE7039900200877FFE7FFE77F
:1044B0009DF804000007002824D5FFE79DF80800B8
:1044C000000700281DD5FFE7039801686FF008007A
:1044D000086103990420087703980068C069800781
:1044E00020B1FFE70398FFF77FFF06E0039800F095
:1044F0008DF8039800F08EF8FFE703990020087705
:10450000FFE7FFE79DF80400C006002825D5FFE778
:104510009DF80800C00600281ED5FFE70398016833
:104520006FF010000861039908200877039800686D
:10453000C06910F4407F04D0FFE70398FFF754FFF1
:1045400006E0039800F062F8039800F063F8FFE7D4
:10455000039900200877FFE7FFE79DF80400C007F4
:1045600078B1FFE79DF80800C00748B1FFE703985E
:1045700001686FF001000861039800F04FF8FFE751
:10458000FFE79DF804000006002810D5FFE79DF81E
:1045900008000006002809D5FFE7039801686FF0BE
:1045A000800008610398FFF7CFFCFFE7FFE79DF865
:1045B00004004006002810D5FFE79DF808004006DB
:1045C000002809D5FFE7039801686FF040000861F3
:1045D000039800F081F9FFE7FFE79DF804008006EB
:1045E000002810D5FFE79DF808008006002809D5AF
:1045F000FFE7039801686FF0200008610398FFF758
:10460000A7FCFFE7FFE704B080BD000081B0009089
:1046100001B0704781B0009001B0704780B582B0A2
:104620000190019800680021C4F2010188420FD175
:10463000FFE740F2B020C2F20000406838B1FFE767
:1046400040F2B020C2F2000040688047FFE741E13D
:1046500001980068B0F1804F0FD1FFE740F2B82019
:10466000C2F20000406838B1FFE740F2B820C2F261
:10467000000040688047FFE72BE10198006840F2A6
:104680000041C4F2000188420FD1FFE740F2C02090
:10469000C2F20000406838B1FFE740F2C020C2F229
:1046A000000040688047FFE712E10198006840F68B
:1046B0000001C4F2000188420FD1FFE740F2C82098
:1046C000C2F20000406838B1FFE740F2C820C2F2F1
:1046D000000040688047FFE7F9E00198006840F675
:1046E0000041C4F2000188420FD1FFE740F2D02020
:1046F000C2F20000406838B1FFE740F2D020C2F2B9
:10470000000040688047FFE7E0E00198006841F260
:104710000001C4F2000188420FD1FFE740F2D82027
:10472000C2F20000406838B1FFE740F2D820C2F280
:10473000000040688047FFE7C7E00198006841F249
:104740000041C4F2000188420FD1FFE740F2E020AF
:10475000C2F20000406838B1FFE740F2E020C2F248
:10476000000040688047FFE7AEE00198006840F233
:104770000041C4F2010188420FD1FFE740F2E82076
:10478000C2F20000406838B1FFE740F2E820C2F210
:10479000000040688047FFE795E00198006844F218
:1047A0000001C4F2010188420FD1FFE740F2F0207E
:1047B000C2F20000406838B1FFE740F2F020C2F2D8
:1047C000000040688047FFE77CE00198006844F201
:1047D0000041C4F2010188420FD1FFE740F2882076
:1047E000C2F20000406838B1FFE740F28820C2F210
:1047F000000040688047FFE763E00198006844F6E6
:104800000001C4F2010188420FD1FFE740F290207D
:10481000C2F20000406838B1FFE740F29020C2F2D7
:10482000000040688047FFE74AE00198006841F6D1
:104830000001C4F2000188420FD1FFE740F2982046
:10484000C2F20000406838B1FFE740F29820C2F29F
:10485000000040688047FFE731E00198006841F6BA
:104860000041C4F2000188420FD1FFE740F2A020CE
:10487000C2F20000406838B1FFE740F2A020C2F267
:10488000000040688047FFE718E00198006842F2A6
:104890000001C4F2000188420FD1FFE740F2A820D6
:1048A000C2F20000406838B1FFE740F2A820C2F22F
:1048B000000040688047FFE7FFE7FFE7FFE7FFE70B
:1048C000FFE7FFE7FFE7FFE7FFE7FFE7FFE7FFE7B8
:1048D000FFE7FFE702B080BD81B0009001B07047F4
:1048E00080B586B004900391ADF80A20049890F842
:1048F000420020284DD1FFE7039820B1FFE7BDF823
:104900000A0020B9FFE701208DF8170045E004995F
:104910000120086304990020486304980399BDF8B6
:104920000A2003F08DF88DF809009DF8090058BBA6
:10493000FFE70498006B012821D1FFE7FFE7002083
:10494000019004980068006801900498006840682D
:1049500001900198FFE7FFE7FFE70498006850E83F
:10496000030F40F010000090FFE7009904980268E0
:1049700042E803100028F0D1FFE7FFE703E0012041
:104980008DF80900FFE7FFE79DF809008DF8170093
:1049900003E002208DF81700FFE79DF8170006B02E
:1049A00080BD000080B582B00190ADF80210019882
:1049B000006841F20001C4F2010188421ED1FFE704
:1049C00040F2F820C2F20000D0F8080158B1FFE729
:1049D00040F2F820C2F20000D0F80821BDF8021021
:1049E00084309047FFE7019840F2F821C2F20001BD
:1049F000B1F804218431FFF773FFC7E00198006824
:104A000044F20041C4F2000188421ED1FFE740F2A7
:104A10000440C2F20000D0F8080158B1FFE740F2AC
:104A20000440C2F20000D0F80821BDF80210843022
:104A30009047FFE7019840F20441C2F20001B1F84B
:104A400004218431FFF74CFF9FE00198006844F691
:104A50000001C4F2000188421ED1FFE740F210506D
:104A6000C2F20000D0F8080158B1FFE740F2105040
:104A7000C2F20000D0F80821BDF80210843090473F
:104A8000FFE7019840F21051C2F20001B1F8042191
:104A90008431FFF725FF77E00198006844F6004174
:104AA000C4F2000188421ED1FFE740F21C60C2F24E
:104AB0000000D0F8080158B1FFE740F21C60C2F2D4
:104AC0000000D0F80821BDF8021084309047FFE7BD
:104AD000019840F21C61C2F20001B1F80421843156
:104AE000FFF7FEFE4FE00198006845F20001C4F2B6
:104AF000000188421ED1FFE740F22870C2F2000098
:104B0000D0F8080158B1FFE740F22870C2F2000067
:104B1000D0F80821BDF8021084309047FFE70198D3
:104B200040F22871C2F20001B1F804218431FFF78C
:104B3000D7FE27E00198006841F20041C4F201016C
:104B400088421ED1FFE740F63400C2F20000D0F8E0
:104B5000080158B1FFE740F63400C2F20000D0F877
:104B60000821BDF8021084309047FFE7019840F615
:104B70003401C2F20001B1F804218431FFF7B0FE24
:104B8000FFE7FFE7FFE7FFE7FFE7FFE702B080BDD2
:104B900080B582B001900198006841F20001C4F232
:104BA000010188420BD1FFE7019840F2F821C2F2DF
:104BB0000001B1F804218431FFF792FE68E001980A
:104BC000006844F20041C4F2000188420BD1FFE7C3
:104BD000019840F20441C2F20001B1F8042184318D
:104BE000FFF77EFE53E00198006844F60001C4F22E
:104BF000000188420BD1FFE7019840F21051C2F248
:104C00000001B1F804218431FFF76AFE3EE001980B
:104C1000006844F60041C4F2000188420BD1FFE76E
:104C2000019840F21C61C2F20001B1F80421843104
:104C3000FFF756FE29E00198006845F20001C4F232
:104C4000000188420BD1FFE7019840F22871C2F2BF
:104C50000001B1F804218431FFF742FE14E001980D
:104C6000006841F20041C4F2010188420BD1FFE724
:104C7000019840F63401C2F20001B1F804218431F8
:104C8000FFF72EFEFFE7FFE7FFE7FFE7FFE7FFE79E
:104C900002B080BD80B592B0119011980068006894
:104CA000109011980068C0680F90119800684069D2
:104CB0000E9000200D900C90109800F00F000D90B9
:104CC0000D9888B9FFE79DF84000800600280AD5B6
:104CD000FFE79DF83C008006002804D5FFE7119807
:104CE00002F05AFDEAE1FFE70D98002800F0C280CB
:104CF000FFE79DF83800C00738B9FFE7BDF83C0072
:104D000010F4907F00F0B680FFE79DF84000C007E8
:104D100058B1FFE79DF83D00C00730B1FFE711999A
:104D2000486C40F001004864FFE79DF840004007F0
:104D300000280BD5FFE79DF83800C00730B1FFE72A
:104D40001199486C40F002004864FFE79DF840006C
:104D5000800700280BD5FFE79DF83800C00730B169
:104D6000FFE71199486C40F004004864FFE79DF8A4
:104D700040000007002811D5FFE79DF83C008006A1
:104D8000002805D4FFE79DF83800C00730B1FFE7E1
:104D90001199486C40F008004864FFE71198406C96
:104DA000002866D0FFE79DF84000800600280AD55D
:104DB000FFE79DF83C008006002804D5FFE7119826
:104DC00002F0EAFCFFE7119800684069C0F3801028
:104DD0000C901198406C0007002804D4FFE70C9851
:104DE00000283ED0FFE7119802F0A0FB1198006860
:104DF0004069400600282FD5FFE7FFE7FFE711983D
:104E0000006850E8050F20F040000B90FFE70B9979
:104E10001198026842E805100028F0D1FFE7FFE78B
:104E20001198C06B98B1FFE71198C16B47F26930D8
:104E3000C0F6000008651198C06BFDF78FF928B126
:104E4000FFE71198C06B016D8847FFE703E01198F9
:104E5000FFF79EFEFFE703E01198FFF799FEFFE7DB
:104E600006E01198FFF794FE119900204864FFE7CF
:104E7000FFE723E11198006B012840F0FF80FFE776
:104E80009DF84000C006002840F1F880FFE79DF83B
:104E90003C00C006002840F1F180FFE7FFE700205A
:104EA0000A901198006800680A901198006840689C
:104EB0000A900A98FFE711980068406940060028A8
:104EC00040F18280FFE71198C06B00684068ADF840
:104ED0002600BDF82600002875D0FFE7BDF82600A3
:104EE0001199898D88426EDAFFE7BDF82600119985
:104EF000C8851198C06BC069B0F5807F58D0FFE7B6
:104F0000FFE7FFE71198006850E8030F20F4807076
:104F10000890FFE708991198026842E803100028FA
:104F2000F0D1FFE7FFE7FFE7FFE71198006850E8DF
:104F3000050F20F001000790FFE70799119802681C
:104F400042E805100028F0D1FFE7FFE7FFE7FFE7A1
:104F50001198006850E8050F20F040000690FFE728
:104F600006991198026842E805100028F0D1FFE781
:104F7000FFE71199202081F8420011990020086371
:104F8000FFE7FFE71198006850E8030F20F01000DA
:104F90000590FFE705991198026842E80310002880
:104FA000F0D1FFE7FFE71198C06BFDF761F8FFE76D
:104FB0001199022048631198818DC28D891A89B296
:104FC000FFF7F0FCFFE779E01199888DC98D401A51
:104FD000ADF812001198C08D00284ED0FFE7BDF843
:104FE0001200002849D0FFE7FFE7FFE711980068AB
:104FF00050E8030F20F490700390FFE70399119895
:10500000026842E803100028F0D1FFE7FFE7FFE75E
:10501000FFE71198006850E8050F20F001000290AA
:10502000FFE702991198026842E805100028F0D1C4
:10503000FFE7FFE71199202081F842001199002035
:105040000863FFE7FFE71198006850E8030F20F0BE
:1050500010000190FFE701991198026842E80310DF
:105060000028F0D1FFE7FFE711990220486311986B
:10507000BDF81210FFF796FCFFE71FE09DF8400017
:10508000000600280AD5FFE79DF83C00000600282E
:1050900004D5FFE7119802F059FD0FE09DF840009C
:1050A000400600280AD5FFE79DF83C00400600288E
:1050B00004D5FFE7119802F083FAFFE712B080BD34
:1050C00080B582B00090009820B9FFE701208DF8EC
:1050D000070040E00098806908B1FFE700E0FFE7C3
:1050E000009890F8410040B9FFE70099002081F84E
:1050F0004000009800F034F8FFE70099242081F880
:10510000410000980168C86820F40050C860009809
:1051100002F0F8FB00980168086920F490400861EB
:1051200000980168486920F02A00486100980168E9
:10513000C86840F40050C860009900204864009A94
:10514000202182F84110009A82F8421000994863A9
:105150008DF80700FFE79DF8070002B080BD000052
:1051600080B590B00F9000200E900D900C900B9099
:105170000A900F98006844F60001C4F200018842CA
:1051800061D1FFE7FFE70020099043F64000C4F239
:105190000200016841F480210160006800F4802071
:1051A00009900998FFE7FFE70020089043F63000D8
:1051B000C4F20200016841F004010160006800F0DF
:1051C000040008900898FFE74FF440600A9002201E
:1051D0000B90002004900C9003200D9007200E905F
:1051E00040F60000C4F202000AA9FDF783FA049910
:1051F00040F67860C2F20000059046F22802C4F240
:10520000020202604FF0006242608160C1604FF4B0
:105210008062026141618161C1614FF4403202628A
:105220004162FDF74DF918B1FFE7FBF7D1FFFFE74A
:10523000FFE70F9840F67861C2F20001C1630F9852
:105240008863FFE79CE00F98006841F20041C4F2D8
:105250000101884240F09380FFE7FFE700200790BC
:1052600043F64400C4F20200016841F020010160ED
:10527000006800F0200007900798FFE7FFE7002094
:10528000069043F63000C4F20200016841F040018C
:105290000160006800F0400006900698FFE74FF4B8
:1052A00084400A9002200B90002002900C90032072
:1052B0000D9008200E9041F60000C4F202000AA9E9
:1052C000FDF718FA029940F6D860C2F20000039088
:1052D00046F22842C4F2020202604FF020624260AD
:1052E0008160C1604FF48062026141618161C1618E
:1052F00001624162FDF7E4F818B1FFE7FBF768FFD0
:10530000FFE7FFE70F9840F6D861C2F20001C163E2
:105310000F988863FFE740F63870C2F200000190F2
:1053200046F2A041C4F2020101604FF020614160E9
:10533000402181600021C1604FF4806202614161BF
:105340008161C16101624162FDF7BAF818B1FFE7FE
:10535000FBF73EFFFFE7FFE70F9840F63871C2F218
:10536000000181630F988863FFE7472000900022C7
:105370001146FDF74BFC0098FDF73EFCFFE7FFE709
:1053800010B080BD81B0009001B0704781B0009036
:1053900001B0704781B0009001B07047FFE7FEE7B1
:1053A00080B5A0B040F64410C2F200001F90D0F8C3
:1053B000A413C0F8D813D0F8A4130091D0F8BC03FC
:1053C00003F088FB0246009801920A46019942ECDC
:1053D000101B8DED020B03F07DFB41EC100B9FEDDC
:1053E000E01B53EC112B51EC100B03F087F99DEDF2
:1053F000020B41EC110B51EC110B53EC102B02F092
:1054000061FF41EC100B51EC100B9FEDD70B53ECEF
:10541000102B03F073F941EC100B51EC100B02F060
:105420001FFF01461F98C0F8C01390EDF00A90EDE1
:10543000F11A8DED071A02F05DFC1F988DED060A3A
:1054400090EDF00A90EDF21A8DED051A02F09EFC37
:105450009DED051A9DED062A1F98B0EE403A9DED90
:10546000070A21EE031A20EE020A30EE410A80ED0F
:10547000F40A90EDF00A90EDF11A8DED0A1A02F09F
:1054800085FC1F988DED090A90EDF00A90EDF21A57
:105490008DED081A02F02EFC9DED081A9DED092AEB
:1054A0001F98B0EE403A9DED0A0A21EE031A20EE55
:1054B000020A30EE010A80EDF50A90EDF40A90ED53
:1054C000F51A30EE410A10EE100A03F003FB024613
:1054D0001F980B920A460B9942EC101B8DED0C0B9A
:1054E000D0F8CC0303F0F6FA41EC100B51EC100BA2
:1054F0009FED9F0B53EC102B1993189203F0FEF8BD
:105500009DED0C0B41EC110B51EC110B53EC102BDE
:1055100002F0D8FE41EC100B51EC100B02F0A0FE93
:1055200001461F98C0F8DC1390EDF40A90EDF51ACF
:10553000B1EE400A30EE410A10EE100A03F0CAFA4A
:1055400002461F980F920A460F9942EC101B8DEDF0
:10555000100BD0F8CC0303F0BDFA189A199B41EC5C
:10556000100B51EC100B03F0C9F89DED100B41EC42
:10557000110B51EC110B53EC102B02F0A3FE41EC7C
:10558000100B51EC100B02F06BFE01461F98C0F897
:10559000E01390EDF41A90EDF50A30EE410A10EEAA
:1055A000100A03F097FA02461F9813920A461399BD
:1055B00042EC101B8DED140BD0F8CC0303F08AFAEB
:1055C000189A199B41EC100B51EC100B03F096F854
:1055D0009DED140B41EC110B51EC110B53EC102B06
:1055E00002F070FE41EC100B51EC100B02F038FE93
:1055F00001461F98C0F8E41390EDF40A90EDF51AF7
:1056000030EE010A10EE100A03F064FA02461F9809
:1056100017920A46179942EC101B8DED1A0BD0F821
:10562000CC0303F057FA189A199B41EC100B51EC7C
:10563000100B03F063F89DED1A0B41EC110B51ECCC
:10564000110B53EC102B02F03DFE41EC100B51EC12
:10565000100B02F005FE01461F98C0F8E813D0F8C1
:10566000DC0303F037FA41EC100B51EC100B9FED0B
:10567000420B53EC102B1D931C9202F0CBFE41EC1D
:10568000100B51EC100B02F0EBFD01461F98C0F817
:105690000C1400F20C411E91D0F8E00303F01AFA4A
:1056A0001C9A1D9B41EC100B51EC100B02F0B2FE4A
:1056B00041EC100B51EC100B02F0D2FD1E9A01468A
:1056C0001F985160D0F8E40303F004FA1C9A1D9B64
:1056D00041EC100B51EC100B02F09CFE41EC100B56
:1056E00051EC100B02F0BCFD1E9A01461F98916010
:1056F000D0F8E80303F0EEF91C9A1D9B41EC100B67
:1057000051EC100B02F086FE41EC100B51EC100B2B
:1057100002F0A6FD1E9902461F98CA6091ED030A89
:1057200000F53F7001F03EF81E991F9891ED020AB6
:1057300000F5067001F036F81E991F9891ED000AE9
:10574000503001F02FF81E991F9891ED010A00F5D5
:105750009A7001F027F820B080BD00BF00BF00BFE5
:1057600079E9263108AC7C3F000000A046DF913F7C
:10577000CDCCCCCCCCCCDC3FFD87F4DBD781B33FA8
:1057800080B582B040F66850C2F20000019046F247
:105790000041C4F2000101600321416000218160E9
:1057A000C1604FF4102202614FF400124261017691
:1057B000012242768176C27601774177FCF792F931
:1057C00018B1FFE7FBF704FDFFE702B080BD000062
:1057D00080B582B040F69050C2F20000019046F6CB
:1057E0000001C4F2000101600321416000218160D9
:1057F000C1604FF4102202614FF400124261017641
:10580000012242768176C27601774177FCF76AF908
:1058100018B1FFE7FBF7DCFCFFE702B080BD00003A
:1058200080B588B0FFE70020079043F63000C4F24F
:105830000200016841F480010160006800F480000A
:1058400007900798FFE7FFE70020069043F6300037
:10585000C4F20200016841F400110160006800F424
:10586000001006900698FFE70C200090002204929A
:105870001146FDF7CBF90098FDF7BEF9049A3920DF
:1058800001901146FDF7C2F90198FDF7B5F9049AA8
:105890003A2002901146FDF7B9F90298FDF7ACF9EC
:1058A000049A3B2003901146FDF7B0F90398FDF7E9
:1058B000A3F9049A452005901146FDF7A7F905982C
:1058C000FDF79AF908B080BD80B592B00020119024
:1058D00010900F900E900D90FFE700200C9043F673
:1058E0003000C4F20200016841F00201016000686A
:1058F00000F002000C900C98FFE7FFE700200B90EF
:1059000043F63000C4F20200016841F0400101603A
:10591000006800F040000B900B98FFE7FFE70020C5
:105920000A9043F63000C4F20200016841F0010120
:105930000160006800F001000A900A98FFE7FFE7A5
:105940000020099043F63000C4F20200016841F0E3
:1059500008010160006800F0080009900998FFE75D
:10596000FFE70020089043F63000C4F2020001680F
:1059700041F004010160006800F0040008900898FC
:10598000FFE7FFE70020079043F63000C4F2020073
:10599000016841F080010160006800F0800007901C
:1059A0000798FFE70020C4F2020002901021019145
:1059B00000220492FDF77AF8049A40F20040C4F203
:1059C0000200059001210391FDF770F8019B0298F8
:1059D000039A04990D930E920F9110910DA90691BF
:1059E000FCF788FE0498069930220D920E900F90D5
:1059F00040F60000C4F20200FCF77CFE039B049A10
:105A0000059806990D930E930F921092FCF772FE73
:105A100012B080BD80B582B040F69870C2F200002E
:105A2000019043F20001C4F2010101604FF4827160
:105A3000416000218160C160022202610122426155
:105A40004FF4007282613822C26101624162816258
:105A50000A21C162FDF748FF18B1FFE7FBF7B8FB69
:105A6000FFE702B080BD000080B588B00021019141
:105A700007910691059104910391029140F6F0700F
:105A8000C2F2000040F20042C4F200020260A7220B
:105A90004260816040F2E732C26001618161FEF7DD
:105AA000EDFA18B1FFE7FBF793FBFFE74FF48050E7
:105AB000049040F6F070C2F2000004A9FEF7D2FB99
:105AC00018B1FFE7FBF784FBFFE70020029003908B
:105AD00040F6F070C2F2000002A9FEF73DFA18B1DC
